{
  "contractName": "Allowance",
  "abi": [
    {
      "anonymous": false,
      "inputs": [
        {
          "indexed": true,
          "internalType": "address",
          "name": "_forWho",
          "type": "address"
        },
        {
          "indexed": true,
          "internalType": "address",
          "name": "_fromWhom",
          "type": "address"
        },
        {
          "indexed": false,
          "internalType": "uint256",
          "name": "_oldAmount",
          "type": "uint256"
        },
        {
          "indexed": false,
          "internalType": "uint256",
          "name": "_newAmount",
          "type": "uint256"
        }
      ],
      "name": "AllowanceChanged",
      "type": "event"
    },
    {
      "anonymous": false,
      "inputs": [
        {
          "indexed": true,
          "internalType": "address",
          "name": "previousOwner",
          "type": "address"
        },
        {
          "indexed": true,
          "internalType": "address",
          "name": "newOwner",
          "type": "address"
        }
      ],
      "name": "OwnershipTransferred",
      "type": "event"
    },
    {
      "inputs": [
        {
          "internalType": "address",
          "name": "",
          "type": "address"
        }
      ],
      "name": "allowance",
      "outputs": [
        {
          "internalType": "uint256",
          "name": "",
          "type": "uint256"
        }
      ],
      "stateMutability": "view",
      "type": "function"
    },
    {
      "inputs": [],
      "name": "owner",
      "outputs": [
        {
          "internalType": "address",
          "name": "",
          "type": "address"
        }
      ],
      "stateMutability": "view",
      "type": "function"
    },
    {
      "inputs": [],
      "name": "renounceOwnership",
      "outputs": [],
      "stateMutability": "nonpayable",
      "type": "function"
    },
    {
      "inputs": [
        {
          "internalType": "address",
          "name": "newOwner",
          "type": "address"
        }
      ],
      "name": "transferOwnership",
      "outputs": [],
      "stateMutability": "nonpayable",
      "type": "function"
    },
    {
      "inputs": [
        {
          "internalType": "address",
          "name": "_who",
          "type": "address"
        },
        {
          "internalType": "uint256",
          "name": "_amount",
          "type": "uint256"
        }
      ],
      "name": "setAllowance",
      "outputs": [],
      "stateMutability": "nonpayable",
      "type": "function"
    }
  ],
  "bytecode": "0x608060405234801561001057600080fd5b5061002d61002261003260201b60201c565b61003a60201b60201c565b6100fe565b600033905090565b60008060009054906101000a900473ffffffffffffffffffffffffffffffffffffffff169050816000806101000a81548173ffffffffffffffffffffffffffffffffffffffff021916908373ffffffffffffffffffffffffffffffffffffffff1602179055508173ffffffffffffffffffffffffffffffffffffffff168173ffffffffffffffffffffffffffffffffffffffff167f8be0079c531659141344cd1fd0a4f28419497f9722a3daafe3b4186f6b6457e060405160405180910390a35050565b6106cc8061010d6000396000f3fe608060405234801561001057600080fd5b50600436106100575760003560e01c8063310ec4a71461005c5780633e5beab914610078578063715018a6146100a85780638da5cb5b146100b2578063f2fde38b146100d0575b600080fd5b6100766004803603810190610071919061049d565b6100ec565b005b610092600480360381019061008d91906104dd565b6101e2565b60405161009f9190610519565b60405180910390f35b6100b06101fa565b005b6100ba61020e565b6040516100c79190610543565b60405180910390f35b6100ea60048036038101906100e591906104dd565b610237565b005b6100f46102ba565b3373ffffffffffffffffffffffffffffffffffffffff168273ffffffffffffffffffffffffffffffffffffffff167f3691d1a86d99355e52b689ca70a7bdf6d80763237a6aa06e5fa43964eac7244b600160008673ffffffffffffffffffffffffffffffffffffffff1673ffffffffffffffffffffffffffffffffffffffff168152602001908152602001600020548460405161019292919061055e565b60405180910390a380600160008473ffffffffffffffffffffffffffffffffffffffff1673ffffffffffffffffffffffffffffffffffffffff168152602001908152602001600020819055505050565b60016020528060005260406000206000915090505481565b6102026102ba565b61020c6000610338565b565b60008060009054906101000a900473ffffffffffffffffffffffffffffffffffffffff16905090565b61023f6102ba565b600073ffffffffffffffffffffffffffffffffffffffff168173ffffffffffffffffffffffffffffffffffffffff16036102ae576040517f08c379a00000000000000000000000000000000000000000000000000000000081526004016102a59061060a565b60405180910390fd5b6102b781610338565b50565b6102c26103fc565b73ffffffffffffffffffffffffffffffffffffffff166102e061020e565b73ffffffffffffffffffffffffffffffffffffffff1614610336576040517f08c379a000000000000000000000000000000000000000000000000000000000815260040161032d90610676565b60405180910390fd5b565b60008060009054906101000a900473ffffffffffffffffffffffffffffffffffffffff169050816000806101000a81548173ffffffffffffffffffffffffffffffffffffffff021916908373ffffffffffffffffffffffffffffffffffffffff1602179055508173ffffffffffffffffffffffffffffffffffffffff168173ffffffffffffffffffffffffffffffffffffffff167f8be0079c531659141344cd1fd0a4f28419497f9722a3daafe3b4186f6b6457e060405160405180910390a35050565b600033905090565b600080fd5b600073ffffffffffffffffffffffffffffffffffffffff82169050919050565b600061043482610409565b9050919050565b61044481610429565b811461044f57600080fd5b50565b6000813590506104618161043b565b92915050565b6000819050919050565b61047a81610467565b811461048557600080fd5b50565b60008135905061049781610471565b92915050565b600080604083850312156104b4576104b3610404565b5b60006104c285828601610452565b92505060206104d385828601610488565b9150509250929050565b6000602082840312156104f3576104f2610404565b5b600061050184828501610452565b91505092915050565b61051381610467565b82525050565b600060208201905061052e600083018461050a565b92915050565b61053d81610429565b82525050565b60006020820190506105586000830184610534565b92915050565b6000604082019050610573600083018561050a565b610580602083018461050a565b9392505050565b600082825260208201905092915050565b7f4f776e61626c653a206e6577206f776e657220697320746865207a65726f206160008201527f6464726573730000000000000000000000000000000000000000000000000000602082015250565b60006105f4602683610587565b91506105ff82610598565b604082019050919050565b60006020820190508181036000830152610623816105e7565b9050919050565b7f4f776e61626c653a2063616c6c6572206973206e6f7420746865206f776e6572600082015250565b6000610660602083610587565b915061066b8261062a565b602082019050919050565b6000602082019050818103600083015261068f81610653565b905091905056fea26469706673582212204bf89e5fc664482d6b24ebbfbcce09a2adb35932a2fe552677b288950320317664736f6c63430008100033",
  "immutableReferences": {},
  "source": "//SPDX-License-Identifier: undefined\npragma solidity ^0.8.16;\n\nimport \"@openzeppelin/contracts/access/Ownable.sol\";\n\ncontract Allowance is Ownable {\n    mapping(address => uint) public allowance;\n\n    event AllowanceChanged(address indexed _forWho, address indexed _fromWhom, uint _oldAmount, uint _newAmount);\n\n    modifier ownerOrAllowed(uint _amount) {\n        require(msg.sender == owner() || allowance[msg.sender] >= _amount, \"You are not allowed\");\n        _;\n    }\n\n    function setAllowance(address _who, uint _amount) public onlyOwner {\n        emit AllowanceChanged(_who, msg.sender, allowance[_who], _amount);\n        allowance[_who] = _amount;\n    }\n\n    function reduceAllowance(address _who, uint _amount) internal {\n        emit AllowanceChanged(_who, msg.sender, allowance[_who], allowance[_who] - _amount);\n        allowance[_who] -= _amount;\n    }\n}",
  "sourcePath": "/home/savan-elluminati/Savan/Blockchain/Shared Wallet/contracts/allowance.sol",
  "compiler": {
    "name": "solc",
    "version": "0.8.16+commit.07a7930e.Emscripten.clang"
  },
  "schemaVersion": "3.4.9",
  "updatedAt": "2022-09-26T09:40:18.059Z",
  "devdoc": {
    "kind": "dev",
    "methods": {
      "owner()": {
        "details": "Returns the address of the current owner."
      },
      "renounceOwnership()": {
        "details": "Leaves the contract without owner. It will not be possible to call `onlyOwner` functions anymore. Can only be called by the current owner. NOTE: Renouncing ownership will leave the contract without an owner, thereby removing any functionality that is only available to the owner."
      },
      "transferOwnership(address)": {
        "details": "Transfers ownership of the contract to a new account (`newOwner`). Can only be called by the current owner."
      }
    },
    "version": 1
  },
  "userdoc": {
    "kind": "user",
    "methods": {},
    "version": 1
  }
}